{
  "contractName": "Lottery",
  "abi": [
    {
      "inputs": [],
      "payable": false,
      "stateMutability": "nonpayable",
      "type": "constructor"
    },
    {
      "anonymous": false,
      "inputs": [
        {
          "indexed": false,
          "internalType": "address",
          "name": "player",
          "type": "address"
        },
        {
          "indexed": false,
          "internalType": "uint256",
          "name": "amount",
          "type": "uint256"
        }
      ],
      "name": "playerInvested",
      "type": "event"
    },
    {
      "anonymous": false,
      "inputs": [
        {
          "indexed": false,
          "internalType": "address",
          "name": "winner",
          "type": "address"
        },
        {
          "indexed": false,
          "internalType": "uint256",
          "name": "amount",
          "type": "uint256"
        }
      ],
      "name": "winnerSelected",
      "type": "event"
    },
    {
      "constant": true,
      "inputs": [],
      "name": "manager",
      "outputs": [
        {
          "internalType": "address",
          "name": "",
          "type": "address"
        }
      ],
      "payable": false,
      "stateMutability": "view",
      "type": "function"
    },
    {
      "constant": true,
      "inputs": [
        {
          "internalType": "uint256",
          "name": "",
          "type": "uint256"
        }
      ],
      "name": "players",
      "outputs": [
        {
          "internalType": "address payable",
          "name": "",
          "type": "address"
        }
      ],
      "payable": false,
      "stateMutability": "view",
      "type": "function"
    },
    {
      "constant": false,
      "inputs": [],
      "name": "invest",
      "outputs": [],
      "payable": true,
      "stateMutability": "payable",
      "type": "function"
    },
    {
      "constant": true,
      "inputs": [],
      "name": "getBalance",
      "outputs": [
        {
          "internalType": "uint256",
          "name": "",
          "type": "uint256"
        }
      ],
      "payable": false,
      "stateMutability": "view",
      "type": "function"
    },
    {
      "constant": false,
      "inputs": [],
      "name": "selectWinner",
      "outputs": [],
      "payable": false,
      "stateMutability": "nonpayable",
      "type": "function"
    }
  ],
  "bytecode": "0x608060405234801561001057600080fd5b50336000806101000a81548173ffffffffffffffffffffffffffffffffffffffff021916908373ffffffffffffffffffffffffffffffffffffffff1602179055506107f8806100606000396000f3fe60806040526004361061004a5760003560e01c806312065fe01461004f57806333a99e041461007a578063481c6a7514610091578063e8b5e51f146100e8578063f71d96cb146100f2575b600080fd5b34801561005b57600080fd5b5061006461016d565b6040518082815260200191505060405180910390f35b34801561008657600080fd5b5061008f61021a565b005b34801561009d57600080fd5b506100a6610418565b604051808273ffffffffffffffffffffffffffffffffffffffff1673ffffffffffffffffffffffffffffffffffffffff16815260200191505060405180910390f35b6100f061043d565b005b3480156100fe57600080fd5b5061012b6004803603602081101561011557600080fd5b8101908080359060200190929190505050610651565b604051808273ffffffffffffffffffffffffffffffffffffffff1673ffffffffffffffffffffffffffffffffffffffff16815260200191505060405180910390f35b60008060009054906101000a900473ffffffffffffffffffffffffffffffffffffffff1673ffffffffffffffffffffffffffffffffffffffff163373ffffffffffffffffffffffffffffffffffffffff1614610214576040517f08c379a00000000000000000000000000000000000000000000000000000000081526004018080602001828103825260238152602001806107a16023913960400191505060405180910390fd5b47905090565b6000809054906101000a900473ffffffffffffffffffffffffffffffffffffffff1673ffffffffffffffffffffffffffffffffffffffff163373ffffffffffffffffffffffffffffffffffffffff16146102bf576040517f08c379a00000000000000000000000000000000000000000000000000000000081526004018080602001828103825260238152602001806107a16023913960400191505060405180910390fd5b60006102c961068d565b9050600060018054905082816102db57fe5b0690506000600182815481106102ed57fe5b9060005260206000200160009054906101000a900473ffffffffffffffffffffffffffffffffffffffff1690507f55f5b627439ea7e61a062304e180620655850a1483013dc935ea17f07f0c40ca8147604051808373ffffffffffffffffffffffffffffffffffffffff1673ffffffffffffffffffffffffffffffffffffffff1681526020018281526020019250505060405180910390a18073ffffffffffffffffffffffffffffffffffffffff166108fc479081150290604051600060405180830381858888f193505050501580156103cb573d6000803e3d6000fd5b5060006040519080825280602002602001820160405280156103fc5781602001602082028038833980820191505090505b50600190805190602001906104129291906106d3565b50505050565b6000809054906101000a900473ffffffffffffffffffffffffffffffffffffffff1681565b6000809054906101000a900473ffffffffffffffffffffffffffffffffffffffff1673ffffffffffffffffffffffffffffffffffffffff163373ffffffffffffffffffffffffffffffffffffffff161415610500576040517f08c379a00000000000000000000000000000000000000000000000000000000081526004018080602001828103825260158152602001807f4d616e616765722063616e6e6f7420696e76657374000000000000000000000081525060200191505060405180910390fd5b67016345785d8a000034101561057e576040517f08c379a000000000000000000000000000000000000000000000000000000000815260040180806020018281038252601b8152602001807f496e76657374206d696e696d756d206f6620302e31206574686572000000000081525060200191505060405180910390fd5b60013390806001815401808255809150509060018203906000526020600020016000909192909190916101000a81548173ffffffffffffffffffffffffffffffffffffffff021916908373ffffffffffffffffffffffffffffffffffffffff160217905550507fa8f643ea2fb97c81606ff796830b91e4514e5422e86401ea5ef4ab242f13338f3334604051808373ffffffffffffffffffffffffffffffffffffffff1673ffffffffffffffffffffffffffffffffffffffff1681526020018281526020019250505060405180910390a1565b6001818154811061065e57fe5b906000526020600020016000915054906101000a900473ffffffffffffffffffffffffffffffffffffffff1681565b600042446001805490506040516020018084815260200183815260200182815260200193505050506040516020818303038152906040528051906020012060001c905090565b82805482825590600052602060002090810192821561074c579160200282015b8281111561074b5782518260006101000a81548173ffffffffffffffffffffffffffffffffffffffff021916908373ffffffffffffffffffffffffffffffffffffffff160217905550916020019190600101906106f3565b5b509050610759919061075d565b5090565b61079d91905b8082111561079957600081816101000a81549073ffffffffffffffffffffffffffffffffffffffff021916905550600101610763565b5090565b9056fe4f6e6c79206d616e616765722063616e2063616c6c20746869732066756e6374696f6ea265627a7a723158204ab515527f6f5a5ac21c707d745ba8b24d87cdeedcda36ec460ef5f9e78b268d64736f6c63430005100032",
  "source": "// SPDX-License-Identifier: MIT\npragma solidity >=0.4.22 <0.9.0;\n\ncontract Lottery {\n    address public manager;\n    address payable[] public players;\n    // struct Player {\n    //     address payable investor;\n    //     uint amount;\n    // }\n    // Player[] public players;\n    // constructor - set the manager\n    constructor () public {\n        manager = msg.sender;\n    }\n    modifier onlyManager() {\n        require(msg.sender == manager,\"Only manager can call this function\");\n        _;\n    }\n    // event to the frontend\n    event playerInvested(address player, uint amount);\n    event winnerSelected(address winner, uint amount);\n    // Invest money by players - anyone in the world\n    function invest() payable public { // manager should not invest\n        require(msg.sender != manager,\"Manager cannot invest\");\n        // the person should invest minimum 0.1 ether - exactly invest 3 ether\n        require(msg.value >= 0.1 ether,\"Invest minimum of 0.1 ether\");\n        // i want to keep a track of who all invested\n        players.push(msg.sender);\n        // Player memory tempPlayer;\n        // tempPlayer.investor = msg.sender;\n        // tempPlayer.amount = msg.value;\n        emit playerInvested(msg.sender,msg.value);\n    }\n    // get balance - current balance\n    function getBalance() public view onlyManager returns(uint) {\n        // only manager should see balance\n        return address(this).balance;\n    }\n    //random function\n    function random() private view returns(uint) {\n        return uint(keccak256(abi.encodePacked(block.timestamp,block.difficulty,players.length)));\n    }\n    // manager clicks a function , it should\n    function selectWinner() public onlyManager {\n        // only manager can call this function\n        //select a random number - pseudo random number - do not use this in production\n        // Use ORACLES to find a random number\n        // first take some global variables, encode it, hash it, convert to uint\n        uint r = random();\n        //modulo it with number of players\n        uint index = r % players.length;\n        //map the reminder to a index in the array\n        address payable winner = players[index];\n        //.investor;\n        emit winnerSelected(winner,address(this).balance);\n        //transfer all the money in the contract to the address in the array\n        winner.transfer(address(this).balance);\n        //then make the array empty\n        players = new address payable[](0);\n    }\n}\n\n",
  "sourcePath": "/Volumes/musicmoney/codebymdb2021/lottery2/contracts/Lottery.sol",
  "compiler": {
    "name": "solc",
    "version": "0.5.16+commit.9c3226ce.Emscripten.clang"
  },
  "schemaVersion": "3.4.1",
  "updatedAt": "2021-05-09T19:31:23.343Z",
  "networkType": "ethereum",
  "devdoc": {
    "methods": {}
  },
  "userdoc": {
    "methods": {}
  }
}